:100000000C942A000C9447000C9447000C94470071
:100010000C9447000C9447000C9447000C94470044
:100020000C9447000C9447000C9447000C94470034
:100030000C9447000C9447000C9447000C94470024
:100040000C9447000C9447000C9447000C94470014
:100050000C94470011241FBECFE5D8E0DEBFCDBF12
:1000600012E0A0E6B0E0E2E8F7E402C005900D92ED
:10007000A234B107D9F712E0A2E4B2E001C01D92A8
:10008000A734B107E1F70E9479220C94BF230C94A6
:100090000000EF92FF920F931F937B018C0120E0F1
:1000A00030E040E05FE40E94F50388238CF0C80153
:1000B000B70120E030E040E05FE40E94C1010E940F
:1000C000B3049B01AC01205030404040504806C072
:1000D000C801B7010E94B3049B01AC01B901CA0178
:1000E0001F910F91FF90EF900895A0E0B0E0EBE733
:1000F000F0E00C945723DC012B01FA019C91923023
:1001000008F439C1EB018881823008F433C194309E
:1001100069F4843009F02FC111969C91119789815F
:10012000981709F428C1A6E2B1E025C1843009F48A
:1001300021C18230A9F4923009F01DC19A01AD01AC
:1001400088E0EA010990AE01E90109929E0181501F
:10015000C1F7E201898111969C918923818308C1AD
:10016000923009F407C112962D903C901397EB0141
:100170008A819B811496AD90BD90CD90DC901797AD
:10018000EC80FD800E811F819101281B390BB90184
:1001900037FF04C066277727621B730B6032710537
:1001A0000CF061C0121613066CF537014801062EDB
:1001B00004C096948794779467940A94D2F721E0C8
:1001C00030E040E050E004C0220F331F441F551FB1
:1001D0006A95D2F721503040404050402E213F21B7
:1001E00040235123211531054105510521F021E01E
:1001F00030E040E050E079018A01E628F72808293C
:1002000019293CC0232BD1F1260E371E350146019A
:10021000062E04C096948794779467940A94D2F734
:1002200021E030E040E050E004C0220F331F441FC3
:10023000551F6A95D2F721503040404050402A2146
:100240003B214C215D21211531054105510521F04E
:1002500021E030E040E050E059016A01A628B728CB
:10026000C828D9280BC0821593052CF01C01AA249C
:10027000BB24650103C0EE24FF24870111969C91E5
:10028000D20111968C91981709F445C0992339F041
:10029000A80197012A193B094C095D0906C0A6016E
:1002A00095012E193F09400B510B57FD08C01182D3
:1002B0003382228224833583468357831DC081E0A5
:1002C00081833382228288279927DC01821B930B4A
:1002D000A40BB50B84839583A683B7830DC0220F2F
:1002E000331F441F551F24833583468357838281E0
:1002F000938101979383828324813581468157813D
:10030000DA01C9010197A109B1098F5F9F4FAF4F72
:10031000BF4328F30BC0918333822282EA0CFB1C7B
:100320000C1D1D1DE482F5820683178383E0808304
:10033000248135814681578157FF1AC0C901AA27F8
:1003400097FDA095BA2F81709070A070B0705695EF
:10035000479537952795822B932BA42BB52B848318
:100360009583A683B7838281938101969383828349
:10037000DF0101C0D201CD01CDB7DEB7E2E10C94BF
:100380007323A0E2B0E0E7ECF1E00C94632369830F
:100390007A838B839C832D833E834F835887E9E048
:1003A000EE2EF12CEC0EFD1ECE010196B7010E943F
:1003B000A4068E010F5E1F4FCE010596B8010E9464
:1003C000A4068A8991E089278A8BC701B801AE010A
:1003D000475E5F4F0E9475000E94CF05A096E6E041
:1003E0000C947F23A0E2B0E0E8EFF1E00C946323EB
:1003F00069837A838B839C832D833E834F835887C5
:10040000F9E0EF2EF12CEC0EFD1ECE010196B701A6
:100410000E94A4068E010F5E1F4FCE010596B80103
:100420000E94A406C701B801AE01475E5F4F0E945B
:1004300075000E94CF05A096E6E00C947F23A0E211
:10044000B0E0E5E2F2E00C94572369837A838B8372
:100450009C832D833E834F835887CE010196BE0136
:10046000675F7F4F0E94A406CE010596BE016F5EB6
:100470007F4F0E94A4069985923088F08989823046
:10048000C8F0943019F4823051F404C0843029F457
:10049000923081F486E291E0C6C0923049F420E0C7
:1004A0009A858A89981321E02A87CE010996BBC0D4
:1004B000823049F420E09A858A89981321E02A8BBA
:1004C000CE014196B0C02D843E844F8458886D88FB
:1004D0007E888F88988CEE24FF248701AA24BB2471
:1004E000650140E050E060E070E0E0E0F0E0C10174
:1004F00081709070892BE9F0E60CF71C081D191D1E
:100500009A01AB012A0D3B1D4C1D5D1D80E090E062
:10051000A0E0B0E0E614F7040805190520F481E036
:1005200090E0A0E0B0E0BA01A901480F591F6A1F8E
:100530007B1FAA0CBB1CCC1CDD1C97FE08C081E0F5
:1005400090E0A0E0B0E0A82AB92ACA2ADB2A3196B6
:10055000E032F10549F0660C771C881C991C569412
:10056000479437942794C3CFFA85EA892B893C892D
:100570008B859C85280F391F2E5F3F4F17C0CA01FE
:1005800081709070892B61F016950795F794E79428
:1005900080E090E0A0E0B0E8E82AF92A0A2B1B2BC3
:1005A00076956795579547952F5F3F4F77FDE7CF36
:1005B0000CC0440F551F661F771F17FD4160EE0CDE
:1005C000FF1C001F111F21503040403090E05907A0
:1005D00090E0690790E4790760F32B8F3C8FDB0193
:1005E000CA018F779070A070B07080349105A1051A
:1005F000B10561F447FD0AC0E114F10401051105DC
:1006000029F0405C5F4F6F4F7F4F40781A8EFE1786
:1006100011F081E08A8F4D8F5E8F6F8F78A383E01A
:10062000898FCE0149960E94CF05A096E2E10C94F5
:100630007323A8E1B0E0EFE1F3E00C945F2369835A
:100640007A838B839C832D833E834F835887B9E0C5
:10065000EB2EF12CEC0EFD1ECE010196B7010E948F
:10066000A4068E010F5E1F4FCE010596B8010E94B1
:10067000A4062985223008F47EC03989323010F46E
:10068000B8017CC08A859A8989278A87243011F02D
:10069000223031F4231709F06EC066E271E06EC0BB
:1006A000343039F41D861E861F86188A1C861B86E8
:1006B00004C0323021F484E08987B7015FC02B8504
:1006C0003C858B899C89281B390B3C872B87ED84C3
:1006D000FE840F851889AD88BE88CF88D88CEA142F
:1006E000FB040C051D0540F4EE0CFF1C001F111F40
:1006F000215030403C872B8720E030E040E050E044
:1007000080E090E0A0E0B0E460E070E0EA14FB0478
:100710000C051D0540F0282B392B4A2B5B2BEA18C2
:10072000FB080C091D09B695A79597958795EE0CC2
:10073000FF1C001F111F6F5F7F4F6F31710531F775
:10074000DA01C9018F779070A070B0708034910584
:10075000A105B10561F427FD0AC0E114F10401050A
:10076000110529F0205C3F4F4F4F5F4F20782D87B8
:100770003E874F87588BBE01675F7F4FCB010E943A
:10078000CF056896EAE00C947B23A8E1B0E0EBEC9F
:10079000F3E00C94632369837A838B839C832D839A
:1007A0003E834F83588789E0E82EF12CEC0EFD1E26
:1007B000CE010196B7010E94A4068E010F5E1F4F65
:1007C000CE010596B8010E94A4068985823040F0CA
:1007D0008989823028F0C701B8010E941C0701C036
:1007E0008FEF6896E6E00C947F23A8E1B0E0EBEF92
:1007F000F3E00C94632369837A838B839C832D833A
:100800003E834F83588789E0E82EF12CEC0EFD1EC5
:10081000CE010196B7010E94A4068E010F5E1F4F04
:10082000CE010596B8010E94A4068985823040F069
:100830008989823028F0C701B8010E941C0701C0D5
:100840008FEF6896E6E00C947F23A8E1B0E0EBE23E
:10085000F4E00C94632369837A838B839C832D83D8
:100860003E834F83588789E0E82EF12CEC0EFD1E65
:10087000CE010196B7010E94A4068E010F5E1F4FA4
:10088000CE010596B8010E94A4068985823040F009
:100890008989823028F0C701B8010E941C0701C075
:1008A00081E06896E6E00C947F23A8E0B0E0EBE5F9
:1008B000F4E00C9460239B01AC0183E08983DA01AE
:1008C000C9018827B7FD83959927AA27BB27B82E8A
:1008D000211531054105510519F482E089833AC09B
:1008E0008823A9F0203080E0380780E0480780E8BE
:1008F000580729F460E070E080E09FEC30C0EE24FF
:10090000FF248701E21AF30A040B150B02C07901D8
:100910008A018EE1C82ED12CDC82CB82ED82FE8250
:100920000F831887C801B7010E9480050197181628
:10093000190684F4082E04C0EE0CFF1C001F111FC2
:100940000A94D2F7ED82FE820F831887C81AD90A5B
:10095000DC82CB82BA82CE0101960E94CF05289616
:10096000E9E00C947C23ACE0B0E0E9EBF4E00C941B
:10097000672369837A838B839C83CE010196BE01B2
:100980006B5F7F4F0E94A4068D81823061F18230BF
:1009900050F1843021F48E81882351F12EC02F81B3
:1009A000388537FD20C06E812F3131051CF066235C
:1009B000F9F023C08EE190E0821B930B29853A85E4
:1009C0004B855C8504C056954795379527958A9544
:1009D000D2F76623B1F050954095309521953F4F61
:1009E0004F4F5F4F0EC020E030E040E050E009C0C4
:1009F0002FEF3FEF4FEF5FE704C020E030E040E033
:100A000050E8B901CA012C96E2E00C948323A8E0D7
:100A1000B0E0EDE0F5E00C945F237B018C01611503
:100A200071058105910519F482E0898360C083E036
:100A300089838EE1C82ED12CDC82CB82ED82FE82AE
:100A40000F831887C801B7010E948005FC01319708
:100A5000F7FF3BC0222733272E1B3F0B57016801AE
:100A6000022E04C0D694C794B794A7940A94D2F7E0
:100A700040E050E060E070E081E090E0A0E0B0E0B5
:100A800004C0880F991FAA1FBB1F2A95D2F7019790
:100A9000A109B1098E219F21A023B1230097A105AF
:100AA000B10521F041E050E060E070E04A295B29A7
:100AB0006C297D294D835E836F8378878EE190E07A
:100AC0008E1B9F0B9C838B8312C0309781F00E2E60
:100AD00004C0EE0CFF1C001F111F0A94D2F7ED8218
:100AE000FE820F831887CE1ADF0ADC82CB821A823D
:100AF000CE0101960E94CF052896EAE00C947B2354
:100B0000EF92FF920F931F937B018C0180E0E81618
:100B100080E0F80681E0080780E0180788F48FEF8E
:100B2000E816F1040105110531F028F088E090E0A5
:100B3000A0E0B0E017C080E090E0A0E0B0E012C01C
:100B400080E0E81680E0F80680E0080781E01807FA
:100B500028F088E190E0A0E0B0E004C080E190E0FF
:100B6000A0E0B0E020E230E040E050E0281B390B8C
:100B70004A0B5B0B04C016950795F794E7948A958A
:100B8000D2F7F701E25DFE4F8081281B3109410950
:100B90005109C9011F910F91FF90EF900895DF92C5
:100BA000EF92FF920F931F93FC01E480F580068182
:100BB0001781D1808081823048F480E090E0A0E10C
:100BC000B0E0E82AF92A0A2B1B2BA5C0843009F4CF
:100BD0009FC0823021F4EE24FF24870105C0E11478
:100BE000F1040105110519F4E0E0F0E096C062811E
:100BF00073819FEF623879070CF05BC022E83FEF0A
:100C0000261B370B2A3131052CF020E030E040E084
:100C100050E02AC0B801A701022E04C0769567955E
:100C2000579547950A94D2F781E090E0A0E0B0E0B4
:100C300004C0880F991FAA1FBB1F2A95D2F70197DE
:100C4000A109B1098E219F21A023B1230097A105FD
:100C5000B10521F081E090E0A0E0B0E09A01AB01A5
:100C6000282B392B4A2B5B2BDA01C9018F77907027
:100C7000A070B07080349105A105B10539F427FF4B
:100C800009C0205C3F4F4F4F5F4F04C0215C3F4F76
:100C90004F4F5F4FE0E0F0E02030A0E03A07A0E0E7
:100CA0004A07A0E45A0710F0E1E0F0E079018A0178
:100CB00027C06038710564F5FB01E158FF4FD8018A
:100CC000C7018F779070A070B07080349105A10536
:100CD000B10539F4E7FE0DC080E490E0A0E0B0E09B
:100CE00004C08FE390E0A0E0B0E0E80EF91E0A1F18
:100CF0001B1F17FF05C016950795F794E7943196CB
:100D000087E016950795F794E7948A95D1F705C083
:100D1000EE24FF248701EFEFF0E06E2F6795662742
:100D20006795902F9F77D794DD24D7948E2F869543
:100D3000492F462B582F5D29B701CA011F910F91EA
:100D4000FF90EF90DF900895FC01DB01408151811D
:100D50002281622F6F7770E0221F2227221F93814A
:100D6000892F880F822B282F30E0991F9927991FF0
:100D700011969C93119721153105A9F5411551053F
:100D80006105710511F482E037C082E89FEF139688
:100D90009C938E9312979A01AB0167E0220F331F49
:100DA000441F551F6A95D1F783E08C930DC0220F25
:100DB000331F441F551F12968D919C9113970197D5
:100DC00013969C938E931297203080E0380780E032
:100DD000480780E4580758F314962D933D934D939C
:100DE0005C93179708952F3F310579F4411551050C
:100DF0006105710519F484E08C93089564FF03C0C4
:100E000081E08C9312C01C9210C02F573040139673
:100E10003C932E93129783E08C9387E0440F551FE9
:100E2000661F771F8A95D1F7706414964D935D9372
:100E30006D937C93179708951F93DC01FB019C91A0
:100E4000923008F447C08081823008F443C0943067
:100E500051F411961C91843099F58181682F70E0CE
:100E6000611B71093FC0843021F0923031F482302F
:100E7000B9F18181882389F12DC011961C911197B8
:100E80008230F1F081811817D9F412962D913C919E
:100E90001397828193818217930794F0281739075B
:100EA000BCF014968D919D910D90BC91A02D248144
:100EB000358146815781281739074A075B0718F49F
:100EC000112341F00AC082179307A407B50740F425
:100ED000112319F061E070E005C06FEF7FEF02C0F1
:100EE00060E070E0CB011F910895DF93CF930F92E4
:100EF000CDB7DEB78983A7E2B0E0E7E2F0E080811A
:100F000080648C93A7E2B0E0E7E2F0E080818F7725
:100F10008C93A7E2B0E0E7E2F0E080818F7D8C93D4
:100F2000A7E2B0E0E7E2F0E080818F7E8C93A7E259
:100F3000B0E0E7E2F0E08081877F8C93A7E2B0E049
:100F4000E7E2F0E080818B7F8C93A7E2B0E0E7E2FC
:100F5000F0E080818D7F8C93A7E2B0E0E7E2F0E0E3
:100F600080818E7F8C93A7E2B0E0E7E2F0E0908191
:100F70008981892B8C93A6E2B0E0E6E2F0E08081E3
:100F800081608C93A6E2B0E0E6E2F0E080818260CE
:100F90008C93A6E2B0E0E6E2F0E0808184608C937E
:100FA000A6E2B0E0E6E2F0E08081877F8C93A6E2E3
:100FB000B0E0E6E2F0E0808180688C93A6E2B0E0E9
:100FC000E6E2F0E0808180648C930F90CF91DF9116
:100FD0000895DF93CF9300D00F92CDB7DEB79A83F9
:100FE0008983E6E2F0E08081882F90E08071907044
:100FF00095958795959587959595879595958795D9
:10100000009719F1A4E2B0E0E4E2F0E08081918180
:10101000937011969C938E93E4E2F0E0808191812D
:10102000E981FA8191838083A6E2B0E0E6E2F0E014
:10103000808180618C93A6E2B0E0E6E2F0E08081FE
:1010400080648C9381E08B8301C01B828B810F9025
:101050000F900F90CF91DF910895DF93CF93CDB78D
:10106000DEB7E7E2F0E080EC8083E6E2F0E087E8DC
:101070008083CF91DF910895DF93CF930F92CDB707
:10108000DEB78983A7E2B0E0E7E2F0E08081982F45
:10109000907E89818F71892B8C93A6E2B0E0E6E285
:1010A000F0E0808180648C93E6E2F0E08081882F1C
:1010B00090E0807490700097B9F7E4E2F0E08081EE
:1010C00091810F90CF91DF910895DF93CF9300D05E
:1010D00000D00F92CDB7DEB789836A834B838A81B4
:1010E000883008F0D5C08981843008F0D1C089816A
:1010F000282F30E03D832C838C819D8181309105A8
:1011000009F443C02C813D81223031052CF48C81BF
:101110009D81009771F0BCC02C813D81223031054A
:1011200009F45FC08C819D818330910509F485C0ED
:10113000AFC08B818130A1F4AAE3B0E0EAE3F0E034
:101140008081482F8A81282F30E081E090E0022EB4
:1011500002C0880F991F0A94E2F7842B8C9398C0E1
:10116000AAE3B0E0EAE3F0E08081482F8A81282FEB
:1011700030E081E090E0022E02C0880F991F0A94AF
:10118000E2F7809584238C9383C08B818130A1F416
:10119000A7E3B0E0E7E3F0E08081482F8A81282FC1
:1011A00030E081E090E0022E02C0880F991F0A947F
:1011B000E2F7842B8C936CC0A7E3B0E0E7E3F0E0A8
:1011C0008081482F8A81282F30E081E090E0022E34
:1011D00002C0880F991F0A94E2F7809584238C93AC
:1011E00057C08B818130A1F4A4E3B0E0E4E3F0E0E8
:1011F0008081482F8A81282F30E081E090E0022E04
:1012000002C0880F991F0A94E2F7842B8C9340C088
:10121000A4E3B0E0E4E3F0E08081482F8A81282F46
:1012200030E081E090E0022E02C0880F991F0A94FE
:10123000E2F7809584238C932BC08B818130A1F4BD
:10124000A1E3B0E0E1E3F0E08081482F8A81282F1C
:1012500030E081E090E0022E02C0880F991F0A94CE
:10126000E2F7842B8C9314C0A1E3B0E0E1E3F0E05B
:101270008081482F8A81282F30E081E090E0022E83
:1012800002C0880F991F0A94E2F7809584238C93FB
:101290000F900F900F900F900F90CF91DF910895C6
:1012A000DF93CF9300D000D00F92CDB7DEB7898304
:1012B0006A834B838A81883008F0D5C08981843065
:1012C00008F0D1C08981282F30E03D832C838C81A8
:1012D0009D818130910509F443C02C813D812230EC
:1012E00031052CF48C819D81009771F0BCC02C815C
:1012F0003D812230310509F45FC08C819D818330AE
:10130000910509F485C0AFC08B818823A9F4ABE3B4
:10131000B0E0EBE3F0E08081482F8A81282F30E0B5
:1013200081E090E0022E02C0880F991F0A94E2F734
:10133000809584238C9397C0ABE3B0E0EBE3F0E0BF
:101340008081482F8A81282F30E081E090E0022EB2
:1013500002C0880F991F0A94E2F7842B8C9383C0F4
:101360008B818823A9F4A8E3B0E0E8E3F0E0808172
:10137000482F8A81282F30E081E090E0022E02C0C1
:10138000880F991F0A94E2F7809584238C936BC091
:10139000A8E3B0E0E8E3F0E08081482F8A81282FBD
:1013A00030E081E090E0022E02C0880F991F0A947D
:1013B000E2F7842B8C9357C08B818823A9F4A5E393
:1013C000B0E0E5E3F0E08081482F8A81282F30E00B
:1013D00081E090E0022E02C0880F991F0A94E2F784
:1013E000809584238C933FC0A5E3B0E0E5E3F0E073
:1013F0008081482F8A81282F30E081E090E0022E02
:1014000002C0880F991F0A94E2F7842B8C932BC09B
:101410008B818823A9F4A2E3B0E0E2E3F0E08081CD
:10142000482F8A81282F30E081E090E0022E02C010
:10143000880F991F0A94E2F7809584238C9313C038
:10144000A2E3B0E0E2E3F0E08081482F8A81282F18
:1014500030E081E090E0022E02C0880F991F0A94CC
:10146000E2F7842B8C930F900F900F900F900F90BA
:10147000CF91DF910895DF93CF9300D000D00F92EA
:10148000CDB7DEB789836A838A81883018F4898171
:10149000843010F01D8282C08981282F30E03C8387
:1014A0002B834B815C814130510579F18B819C818B
:1014B0008230910534F42B813C812115310569F08E
:1014C0006CC04B815C8142305105B9F18B819C81AC
:1014D0008330910509F449C060C0E9E3F0E0808100
:1014E000282F30E08A81882F90E0A90102C055950D
:1014F00047958A95E2F7CA0181709070882319F0A8
:1015000051E05D834BC01D8249C0E6E3F0E080817D
:10151000282F30E08A81882F90E0A90102C05595DC
:1015200047958A95E2F7CA0181709070882319F077
:1015300051E05D8333C01D8231C0E3E3F0E0808180
:10154000282F30E08A81882F90E0A90102C05595AC
:1015500047958A95E2F7CA0181709070882319F047
:1015600051E05D831BC01D8219C0E0E3F0E0808183
:10157000282F30E08A81882F90E0A90102C055957C
:1015800047958A95E2F7CA0181709070882319F017
:1015900051E05D8303C01D8201C01D828D810F90CB
:1015A0000F900F900F900F90CF91DF910895DF93E0
:1015B000CF9300D000D0CDB7DEB789836A8389810D
:1015C000843090F58981282F30E03C832B838B81F8
:1015D0009C8181309105D1F02B813C8122303105F5
:1015E0002CF48B819C81009761F01EC02B813C8183
:1015F0002230310581F08B819C818330910581F00F
:1016000013C0EAE3F0E08A8180830EC0E7E3F0E0F4
:101610008A81808309C0E4E3F0E08A81808304C08A
:10162000E1E3F0E08A8180830F900F900F900F909C
:10163000CF91DF910895DF93CF9300D000D0CDB745
:10164000DEB789836A838981843090F58981282F68
:1016500030E03C832B838B819C8181309105D1F0DC
:101660002B813C81223031052CF48B819C810097A9
:1016700061F01EC02B813C812230310581F08B81CD
:101680009C818330910581F013C0EBE3F0E08A8107
:1016900080830EC0E8E3F0E08A81808309C0E5E33F
:1016A000F0E08A81808304C0E2E3F0E08A818083F5
:1016B0000F900F900F900F90CF91DF910895DF93CF
:1016C000CF9300D000D0CDB7DEB789838981843035
:1016D00010F01C8234C08981282F30E03B832A839C
:1016E0008A819B8181309105D1F02A813B81223012
:1016F00031052CF48A819B81009761F01FC02A81FB
:101700003B812230310581F08A819B8183309105B4
:1017100081F014C0E9E3F0E090819C8310C0E6E31F
:10172000F0E020812C830BC0E3E3F0E030813C83C8
:1017300006C0E0E3F0E080818C8301C01C828C81D4
:101740000F900F900F900F90CF91DF910895DF933E
:10175000CF93CDB7DEB760970FB6F894DEBF0FBE5C
:10176000CDBF81E060E040E00E94650881E061E07B
:1017700040E00E94650881E062E040E00E94650868
:1017800081E063E040E00E94650881E064E040E0C1
:101790000E94650881E065E040E00E94650881E004
:1017A00066E040E00E94650881E067E040E00E945A
:1017B00065081F86ABC081E06F8541E00E94650827
:1017C00081E06F8540E00E945009188A22C0888914
:1017D000982F9C5F81E0692F0E943B0A8823B1F417
:1017E0008F85882F90E0880F991F880F991F982F59
:1017F0008889890F8F5F0E94740D60960FB6F894E8
:10180000DEBF0FBECDBFCF91DF91089588898F5F76
:10181000888B88898430D8F281E06F8540E00E940F
:10182000650880E090E0A0EAB0E48B879C87AD87F4
:10183000BE876B857C858D859E8520E030E04AE7FC
:1018400053E40E941F02DC01CB018F839887A98794
:10185000BA876F81788589859A8520E030E040E8F5
:101860005FE30E94250488232CF481E090E09E83AE
:101870008D833FC06F81788589859A8520E03FEF11
:101880004FE757E40E94C50318164CF56B857C851D
:101890008D859E8520E030E040E251E40E941F02E9
:1018A000DC01CB01BC01CD010E944900DC01CB0170
:1018B0009E838D830FC089E190E09C838B838B8115
:1018C0009C810197F1F79C838B838D819E81019789
:1018D0009E838D838D819E81009769F714C06F81EF
:1018E000788589859A850E944900DC01CB019E8319
:1018F0008D838D819E819A83898389819A810197C5
:10190000F1F79A8389838F858F5F8F878F858430E6
:1019100008F451CF4ECFDF93CF93CDB7DEB76297A8
:101920000FB6F894DEBF0FBECDBF9A8B898B81E0D6
:1019300060E040E00E94650881E061E040E00E94D4
:10194000650881E062E040E00E94650881E063E0B4
:1019500040E00E94650881E064E040E00E94650884
:1019600081E065E040E00E94650881E066E040E0DB
:101970000E94650881E067E040E00E9465081F86DC
:10198000A6C081E06F8541E00E94650881E06F8517
:1019900040E00E945009188A1DC08889982F9C5FDA
:1019A00081E0692F0E943B0A882389F48F85882F64
:1019B00090E0880F991F880F991F982F8889890FA9
:1019C0008F5F0E94740DE989FA89808384C08889B9
:1019D0008F5F888B8889843000F381E06F8540E0D9
:1019E0000E94650880E090E0A0EAB0E48B879C87C5
:1019F000AD87BE876B857C858D859E8520E030E038
:101A00004AE753E40E941F02DC01CB018F839887D1
:101A1000A987BA876F81788589859A8520E030E02B
:101A200040E85FE30E94250488232CF481E090E0E5
:101A30009E838D833FC06F81788589859A8520E05C
:101A40003FEF4FE757E40E94C50318164CF56B852E
:101A50007C858D859E8520E030E040E251E40E9447
:101A60001F02DC01CB01BC01CD010E944900DC0159
:101A7000CB019E838D830FC089E190E09C838B8393
:101A80008B819C810197F1F79C838B838D819E8153
:101A900001979E838D838D819E81009769F714C085
:101AA0006F81788589859A850E944900DC01CB0188
:101AB0009E838D838D819E819A83898389819A817A
:101AC0000197F1F79A8389838F858F5F8F878F8541
:101AD000843008F456CF62960FB6F894DEBF0FBE7E
:101AE000CDBFCF91DF910895DF93CF9300D000D089
:101AF000CDB7DEB78A8319828A81282F30E03C83F4
:101B00002B838B819C818830910509F470C02B81D7
:101B10003C81293031055CF58B819C8184309105B5
:101B200009F459C02B813C81253031059CF48B810F
:101B30009C818230910509F448C02B813C8123307F
:101B400031050CF045C08B819C818130910509F4F1
:101B500039C067C02B813C812630310509F441C072
:101B60008B819C81873091050CF03EC037C02B8162
:101B70003C812C30310509F446C08B819C818D302D
:101B800091055CF42B813C812A303105B1F18B81C8
:101B90009C818B309105A4F52DC02B813C812E308A
:101BA0003105B9F18B819C818E3091057CF12B81BF
:101BB0003C812F30310579F18B819C8180319105F9
:101BC00069F12FC087E089832EC088E089832BC00C
:101BD00089E0898328C085E2898325C084E08983E0
:101BE00022C085E089831FC086E089831CC08AE209
:101BF000898319C081E0898316C082E0898313C07C
:101C000083E0898310C08DE289830DC08DE08983D4
:101C10000AC0198208C08DE3898305C08BE28983DD
:101C200002C08A81898389810F900F900F900F9055
:101C3000CF91DF910895DF93CF93CDB7DEB72E9785
:101C40000FB6F894DEBF0FBECDBF83E064E041E085
:101C50000E94650883E065E041E00E94650880E03D
:101C600090E0A0EAB1E48B879C87AD87BE876B8547
:101C70007C858D859E8520E030E04AE753E40E9414
:101C80001F02DC01CB018F839887A987BA876F81F8
:101C9000788589859A8520E030E040E85FE30E94FE
:101CA000250488232CF481E090E09E838D833FC03F
:101CB0006F81788589859A8520E03FEF4FE757E46B
:101CC0000E94C50318164CF56B857C858D859E8515
:101CD00020E030E040E251E40E941F02DC01CB0131
:101CE000BC01CD010E944900DC01CB019E838D83A4
:101CF0000FC089E190E09C838B838B819C8101974D
:101D0000F1F79C838B838D819E8101979E838D83C8
:101D10008D819E81009769F714C06F8178858985D0
:101D20009A850E944900DC01CB019E838D838D81C1
:101D30009E819A83898389819A810197F1F79A8399
:101D4000898383E060E041E00E94650883E061E010
:101D500041E00E94650883E062E041E00E9465087E
:101D600083E063E041E00E94650883E30E94CD0EBA
:101D700082E30E94CD0E88E20E94CD0E8CE00E948C
:101D8000CD0E81E00E94CD0E2E960FB6F894DEBFE8
:101D90000FBECDBFCF91DF9108950F931F93DF93B7
:101DA000CF93CDB7DEB7C356D0400FB6F894DEBFA1
:101DB0000FBECDBFFE01ED59FF4F808383E064E08D
:101DC00040E00E945009FE01E15AFF4F80E090E0A0
:101DD000A0E8BFE380839183A283B3838E01055A79
:101DE0001F4FFE01E15AFF4F608171818281938113
:101DF00020E030E04AE753E40E941F02DC01CB01FF
:101E0000F80180839183A283B383FE01E55AFF4FDB
:101E1000608171818281938120E030E040E85FE35E
:101E20000E942504882344F4FE01E75AFF4F81E015
:101E300090E09183808364C0FE01E55AFF4F60818A
:101E400071818281938120E03FEF4FE757E40E9448
:101E5000C50318160CF043C0FE01E15AFF4F608124
:101E600071818281938120E030E040E251E40E9460
:101E70001F02DC01CB018E01075A1F4FBC01CD01AF
:101E80000E944900DC01CB01F801918380831FC0CF
:101E9000FE01E95AFF4F89E190E091838083FE01C2
:101EA000E95AFF4F808191810197F1F7FE01E95ACC
:101EB000FF4F91838083DE01A75ABF4FFE01E75A8F
:101EC000FF4F80819181019711969C938E93FE0123
:101ED000E75AFF4F808191810097D1F627C08E018C
:101EE000075A1F4FFE01E55AFF4F608171818281C1
:101EF00093810E944900DC01CB01F801918380832A
:101F0000DE01AB5ABF4FFE01E75AFF4F808191813E
:101F10008D939C93FE01EB5AFF4F80819181019735
:101F2000F1F7FE01EB5AFF4F9183808383E065E078
:101F300041E00E945009FE01EF5AFF4F80E090E01F
:101F4000A0E8BFE380839183A283B3838E01035B08
:101F50001F4FFE01EF5AFF4F608171818281938193
:101F600020E030E04AE753E40E941F02DC01CB018D
:101F7000F80180839183A283B383FE01E35BFF4F6B
:101F8000608171818281938120E030E040E85FE3ED
:101F90000E942504882344F4FE01E55BFF4F81E0A5
:101FA00090E09183808364C0FE01E35BFF4F60811A
:101FB00071818281938120E03FEF4FE757E40E94D7
:101FC000C50318160CF043C0FE01EF5AFF4F6081A5
:101FD00071818281938120E030E040E251E40E94EF
:101FE0001F02DC01CB018E01055B1F4FBC01CD013F
:101FF0000E944900DC01CB01F801918380831FC05E
:10200000FE01E75BFF4F89E190E091838083FE0151
:10201000E75BFF4F808191810197F1F7FE01E75B5C
:10202000FF4F91838083DE01A55BBF4FFE01E55B1F
:10203000FF4F80819181019711969C938E93FE01B1
:10204000E55BFF4F808191810097D1F627C08E011B
:10205000055B1F4FFE01E35BFF4F60817181828151
:1020600093810E944900DC01CB01F80191838083B8
:10207000DE01A95BBF4FFE01E55BFF4F80819181CF
:102080008D939C93FE01E95BFF4F808191810197C5
:10209000F1F7FE01E95BFF4F91838083FE01ED596B
:1020A000FF4F8081882F90E0807190709595879583
:1020B000959587959595879595958795982F83E024
:1020C00060E0492F0E945009FE01ED59FF4F8081C9
:1020D000882F90E08072907095958795959587955B
:1020E000959587959595879595958795982F83E0F4
:1020F00061E0492F0E945009FE01ED59FF4F808198
:10210000882F90E080749070082E892F000C881F13
:10211000990B000C881F991F982F83E062E0492FCC
:102120000E945009FE01ED59FF4F8081982F991FA1
:102130009927991F83E063E0492F0E945009FE010F
:10214000ED5BFF4F80E090E0A0E8BFE380839183E8
:10215000A283B3838E01015C1F4FFE01ED5BFF4F35
:10216000608171818281938120E030E04AE753E40D
:102170000E941F02DC01CB01F80180839183A283BE
:10218000B383FE01FF96608171818281938120E09B
:1021900030E040E85FE30E94250488232CF481E0CE
:1021A00090E09EAF8DAF46C0FE01FF9660817181C9
:1021B0008281938120E03FEF4FE757E40E94C503FF
:1021C000181664F5FE01ED5BFF4F6081718182811D
:1021D000938120E030E040E251E40E941F02DC01E4
:1021E000CB01BC01CD010E944900DC01CB019EAFB7
:1021F0008DAF0FC089E190E09CAF8BAF8BAD9CADF4
:102200000197F1F79CAF8BAF8DAD9EAD01979EAF5F
:102210008DAF8DAD9EAD009769F716C0FE01FF969C
:1022200060817181828193810E944900DC01CB0130
:102230009EAF8DAF8DAD9EAD9AAF89AF89AD9AAD92
:102240000197F1F79AAF89AF83E065E040E00E9423
:10225000500980E090E0A0E8BFE38DAB9EABAFAB50
:10226000B8AF6DA97EA98FA998AD20E030E04AE70C
:1022700053E40E941F02DC01CB0189AB9AABABABEC
:10228000BCAB69A97AA98BA99CA920E030E040E801
:102290005FE30E94250488232CF481E090E098AB52
:1022A0008FA73FC069A97AA98BA99CA920E03FEF1D
:1022B0004FE757E40E94C50318164CF56DA97EA997
:1022C0008FA998AD20E030E040E251E40E941F0267
:1022D000DC01CB01BC01CD010E944900DC01CB0136
:1022E00098AB8FA70FC089E190E09EA78DA78DA521
:1022F0009EA50197F1F79EA78DA78FA598A9019795
:1023000098AB8FA78FA598A9009769F714C069A902
:102310007AA98BA99CA90E944900DC01CB0198AB4A
:102320008FA78FA598A99CA78BA78BA59CA5019784
:10233000F1F79CA78BA783E065E041E00E9450097C
:1023400080E090E0A0E8BFE38FA398A7A9A7BAA771
:102350006FA178A589A59AA520E030E04AE753E46B
:102360000E941F02DC01CB018BA39CA3ADA3BEA3E3
:102370006BA17CA18DA19EA120E030E040E85FE34D
:102380000E94250488232CF481E090E09AA389A37D
:102390003FC06BA17CA18DA19EA120E03FEF4FE744
:1023A00057E40E94C50318164CF56FA178A589A5BE
:1023B0009AA520E030E040E251E40E941F02DC01D7
:1023C000CB01BC01CD010E944900DC01CB019AA3E5
:1023D00089A30FC089E190E098A38F8F8F8D98A17A
:1023E0000197F1F798A38F8F89A19AA101979AA3DA
:1023F00089A389A19AA1009769F714C06BA17CA158
:102400008DA19EA10E944900DC01CB019AA389A362
:1024100089A19AA19E8F8D8F8D8D9E8D0197F1F749
:102420009E8F8D8FFE01ED59FF4F8081982F917007
:1024300083E060E0492F0E945009FE01ED59FF4FF3
:102440008081882F90E08270907095958795982F65
:1024500083E061E0492F0E945009FE01ED59FF4FD2
:102460008081882F90E084709070959587959595E0
:102470008795982F83E062E0492F0E945009FE0162
:10248000ED59FF4F8081882F90E08870907095956E
:1024900087959595879595958795982F83E063E027
:1024A000492F0E94500980E090E0A0E8BFE3898FA7
:1024B0009A8FAB8FBC8F698D7A8D8B8D9C8D20E030
:1024C00030E04AE753E40E941F02DC01CB018D8B10
:1024D0009E8BAF8BB88F6D897E898F89988D20E018
:1024E00030E040E85FE30E94250488232CF481E07B
:1024F00090E09C8B8B8B3FC06D897E898F89988DF6
:1025000020E03FEF4FE757E40E94C50318164CF553
:10251000698D7A8D8B8D9C8D20E030E040E251E416
:102520000E941F02DC01CB01BC01CD010E944900C9
:10253000DC01CB019C8B8B8B0FC089E190E09A8BE7
:10254000898B89899A890197F1F79A8B898B8B8975
:102550009C8901979C8B8B8B8B899C89009769F751
:1025600014C06D897E898F89988D0E944900DC0195
:10257000CB019C8B8B8B8B899C89988B8F878F85CC
:1025800098890197F1F7988B8F8783E065E040E0A9
:102590000E94500980E090E0A0E8BFE38B879C8711
:1025A000AD87BE876B857C858D859E8520E030E07C
:1025B0004AE753E40E941F02DC01CB018F83988716
:1025C000A987BA876F81788589859A8520E030E070
:1025D00040E85FE30E94250488232CF481E090E02A
:1025E0009E838D833FC06F81788589859A8520E0A1
:1025F0003FEF4FE757E40E94C50318164CF56B8573
:102600007C858D859E8520E030E040E251E40E948B
:102610001F02DC01CB01BC01CD010E944900DC019D
:10262000CB019E838D830FC089E190E09C838B83D7
:102630008B819C810197F1F79C838B838D819E8197
:1026400001979E838D838D819E81009769F714C0C9
:102650006F81788589859A850E944900DC01CB01CC
:102660009E838D838D819E819A83898389819A81BE
:102670000197F1F79A838983CD59DF4F0FB6F8940C
:10268000DEBF0FBECDBFCF91DF911F910F91089597
:102690000F931F93DF93CF93CDB7DEB7C356D040D0
:1026A0000FB6F894DEBF0FBECDBFFE01ED59FF4F50
:1026B000808383E064E041E00E945009FE01E15A1A
:1026C000FF4F80E090E0A0E8BFE380839183A28386
:1026D000B3838E01055A1F4FFE01E15AFF4F6081FF
:1026E00071818281938120E030E04AE753E40E94C7
:1026F0001F02DC01CB01F80180839183A283B383A5
:10270000FE01E55AFF4F608171818281938120E053
:1027100030E040E85FE30E942504882344F4FE0192
:10272000E75AFF4F81E090E09183808364C0FE010F
:10273000E55AFF4F608171818281938120E03FEFF4
:102740004FE757E40E94C50318160CF043C0FE0182
:10275000E15AFF4F608171818281938120E030E0F6
:1027600040E251E40E941F02DC01CB018E01075AB6
:102770001F4FBC01CD010E944900DC01CB01F801D3
:10278000918380831FC0FE01E95AFF4F89E190E0E9
:1027900091838083FE01E95AFF4F808191810197E7
:1027A000F1F7FE01E95AFF4F91838083DE01A75ABA
:1027B000BF4FFE01E75AFF4F80819181019711962B
:1027C0009C938E93FE01E75AFF4F80819181009781
:1027D000D1F627C08E01075A1F4FFE01E55AFF4F61
:1027E00060817181828193810E944900DC01CB016B
:1027F000F80191838083DE01AB5ABF4FFE01E75A97
:10280000FF4F808191818D939C93FE01EB5AFF4F86
:10281000808191810197F1F7FE01EB5AFF4F91837F
:10282000808383E065E041E00E945009FE01EF5A99
:10283000FF4F80E090E0A0E8BFE380839183A28314
:10284000B3838E01035B1F4FFE01EF5AFF4F608180
:1028500071818281938120E030E04AE753E40E9455
:102860001F02DC01CB01F80180839183A283B38333
:10287000FE01E35BFF4F608171818281938120E0E3
:1028800030E040E85FE30E942504882344F4FE0121
:10289000E55BFF4F81E090E09183808364C0FE019F
:1028A000E35BFF4F608171818281938120E03FEF84
:1028B0004FE757E40E94C50318160CF043C0FE0111
:1028C000EF5AFF4F608171818281938120E030E077
:1028D00040E251E40E941F02DC01CB018E01055B46
:1028E0001F4FBC01CD010E944900DC01CB01F80162
:1028F000918380831FC0FE01E75BFF4F89E190E079
:1029000091838083FE01E75BFF4F80819181019776
:10291000F1F7FE01E75BFF4F91838083DE01A55B4A
:10292000BF4FFE01E55BFF4F8081918101971196BA
:102930009C938E93FE01E55BFF4F80819181009710
:10294000D1F627C08E01055B1F4FFE01E35BFF4FF1
:1029500060817181828193810E944900DC01CB01F9
:10296000F80191838083DE01A95BBF4FFE01E55B27
:10297000FF4F808191818D939C93FE01E95BFF4F16
:10298000808191810197F1F7FE01E95BFF4F91830F
:102990008083FE01ED59FF4F8081882F90E0807188
:1029A000907095958795959587959595879595952B
:1029B0008795982F83E060E0492F0E945009FE011F
:1029C000ED59FF4F8081882F90E08072907095952F
:1029D00087959595879595958795959587959595DF
:1029E0008795982F83E061E0492F0E945009FE01EE
:1029F000ED59FF4F8081882F90E080749070082EF1
:102A0000892F000C881F990B000C881F991F982F85
:102A100083E062E0492F0E945009FE01ED59FF4F0B
:102A20008081982F991F9927991F83E063E0492F90
:102A30000E945009FE01ED5BFF4F80E090E0A0E8AE
:102A4000BFE380839183A283B3838E01015C1F4F18
:102A5000FE01ED5BFF4F608171818281938120E0F7
:102A600030E04AE753E40E941F02DC01CB01F80189
:102A700080839183A283B383FE01FF96608171817D
:102A80008281938120E030E040E85FE30E942504EA
:102A900088232CF481E090E09EAF8DAF46C0FE010C
:102AA000FF96608171818281938120E03FEF4FE743
:102AB00057E40E94C503181664F5FE01ED5BFF4F55
:102AC000608171818281938120E030E040E251E4B5
:102AD0000E941F02DC01CB01BC01CD010E94490014
:102AE000DC01CB019EAF8DAF0FC089E190E09CAFC0
:102AF0008BAF8BAD9CAD0197F1F79CAF8BAF8DADDC
:102B00009EAD01979EAF8DAF8DAD9EAD009769F7DD
:102B100016C0FE01FF9660817181828193810E94BF
:102B20004900DC01CB019EAF8DAF8DAD9EAD9AAF5C
:102B300089AF89AD9AAD0197F1F79AAF89AF83E07C
:102B400065E040E00E94500980E090E0A0E8BFE32B
:102B50008DAB9EABAFABB8AF6DA97EA98FA998AD79
:102B600020E030E04AE753E40E941F02DC01CB0181
:102B700089AB9AABABABBCAB69A97AA98BA99CA971
:102B800020E030E040E85FE30E94250488232CF435
:102B900081E090E098AB8FA73FC069A97AA98BA983
:102BA0009CA920E03FEF4FE757E40E94C5031816A9
:102BB0004CF56DA97EA98FA998AD20E030E040E2E8
:102BC00051E40E941F02DC01CB01BC01CD010E9437
:102BD0004900DC01CB0198AB8FA70FC089E190E0E1
:102BE0009EA78DA78DA59EA50197F1F79EA78DA7FE
:102BF0008FA598A9019798AB8FA78FA598A9009743
:102C000069F714C069A97AA98BA99CA90E944900F7
:102C1000DC01CB0198AB8FA78FA598A99CA78BA7A8
:102C20008BA59CA50197F1F79CA78BA783E065E096
:102C300041E00E94500980E090E0A0E8BFE38FA34C
:102C400098A7A9A7BAA76FA178A589A59AA520E0FA
:102C500030E04AE753E40E941F02DC01CB018BA362
:102C60009CA3ADA3BEA36BA17CA18DA19EA120E0DE
:102C700030E040E85FE30E94250488232CF481E0E3
:102C800090E09AA389A33FC06BA17CA18DA19EA1D6
:102C900020E03FEF4FE757E40E94C50318164CF5BC
:102CA0006FA178A589A59AA520E030E040E251E423
:102CB0000E941F02DC01CB01BC01CD010E94490032
:102CC000DC01CB019AA389A30FC089E190E098A30E
:102CD0008F8F8F8D98A10197F1F798A38F8F89A17E
:102CE0009AA101979AA389A389A19AA1009769F74C
:102CF00014C06BA17CA18DA19EA10E944900DC01A2
:102D0000CB019AA389A389A19AA19E8F8D8F8D8DC6
:102D10009E8D0197F1F79E8F8D8FFE01ED59FF4F2C
:102D20008081982F917083E060E0492F0E945009C4
:102D3000FE01ED59FF4F8081882F90E082709070E6
:102D400095958795982F83E061E0492F0E9450095F
:102D5000FE01ED59FF4F8081882F90E084709070C4
:102D60009595879595958795982F83E062E0492FF3
:102D70000E945009FE01ED59FF4F8081882F90E09D
:102D80008870907095958795959587959595879579
:102D9000982F83E063E0492F0E94500980E090E083
:102DA000A0E8BFE3898F9A8FAB8FBC8F698D7A8D36
:102DB0008B8D9C8D20E030E04AE753E40E941F0297
:102DC000DC01CB018D8B9E8BAF8BB88F6D897E899B
:102DD0008F89988D20E030E040E85FE30E94250471
:102DE00088232CF481E090E09C8B8B8B3FC06D8915
:102DF0007E898F89988D20E03FEF4FE757E40E944E
:102E0000C50318164CF5698D7A8D8B8D9C8D20E04D
:102E100030E040E251E40E941F02DC01CB01BC0122
:102E2000CD010E944900DC01CB019C8B8B8B0FC034
:102E300089E190E09A8B898B89899A890197F1F7CA
:102E40009A8B898B8B899C8901979C8B8B8B8B8927
:102E50009C89009769F714C06D897E898F89988D48
:102E60000E944900DC01CB019C8B8B8B8B899C8958
:102E7000988B8F878F8598890197F1F7988B8F872B
:102E800083E065E040E00E94500980E090E0A0E827
:102E9000BFE38B879C87AD87BE876B857C858D85DF
:102EA0009E8520E030E04AE753E40E941F02DC01E7
:102EB000CB018F839887A987BA876F8178858985A9
:102EC0009A8520E030E040E85FE30E9425048823F3
:102ED0002CF481E090E09E838D833FC06F817885E4
:102EE00089859A8520E03FEF4FE757E40E94C503AC
:102EF00018164CF56B857C858D859E8520E030E02D
:102F000040E251E40E941F02DC01CB01BC01CD0173
:102F10000E944900DC01CB019E838D830FC089E1B3
:102F200090E09C838B838B819C810197F1F79C833C
:102F30008B838D819E8101979E838D838D819E8160
:102F4000009769F714C06F81788589859A850E94FA
:102F50004900DC01CB019E838D838D819E819A8304
:102F6000898389819A810197F1F79A838983CD5961
:102F7000DF4F0FB6F894DEBF0FBECDBFCF91DF910C
:102F80001F910F910895DF93CF9300D00F92CDB78B
:102F9000DEB79B838A8319820EC08981282F30E097
:102FA0008A819B81FC01E20FF31F80810E944813FC
:102FB00089818F5F89838981282F30E08A819B8175
:102FC000FC01E20FF31F8081882339F70F900F90E7
:102FD0000F90CF91DF910895DF93CF9300D000D071
:102FE0000F92CDB7DEB78A836B838A81282F30E0BA
:102FF0003D832C838C819D8181309105C1F02C8192
:103000003D81223031052CF48C819D81009761F047
:1030100019C02C813D812230310569F08C819D8160
:103020008330910561F00EC08B8189830BC08B8149
:10303000805C898307C08B81805F898303C08B811B
:10304000805B8983898180680E94CD0E0F900F90EC
:103050000F900F900F90CF91DF910895DF93CF9352
:1030600000D000D0CDB7DEB789836A835C834B8301
:1030700089816A810E94EC178B819C810E94C31711
:103080000F900F900F900F90CF91DF910895EF92D6
:10309000FF920F931F93DF93CF9300D000D000D007
:1030A000CDB7DEB79E838D838D819E81009721F4FD
:1030B00080E30E94481373C08D819E81992354F44C
:1030C0008DE20E9448138D819E81909581959F4F3E
:1030D0009E838D8381E090E0A0E0B0E089839A83B5
:1030E000AB83BC832BC089819A81AB81BC812AE0F0
:1030F00030E040E050E0BC01CD010E94EF227B01B6
:103100008C018D819E812AE030E0B9010E9422234A
:10311000AA2797FDA095BA2F8E0D9F1DA01FB11F46
:1031200089839A83AB83BC838D819E812AE030E0C2
:10313000B9010E942223CB019E838D838D819E81C4
:10314000009789F623C089819A81AB81BC812AE0EE
:1031500030E040E050E0BC01CD010E943523DC01AD
:10316000CB01805D0E94481389819A81AB81BC812B
:103170002AE030E040E050E0BC01CD010E94352360
:10318000DA01C90189839A83AB83BC8389819A81DF
:10319000AB81BC8181309105A105B105A1F62696D0
:1031A0000FB6F894DEBF0FBECDBFCF91DF911F9158
:1031B0000F91FF90EF900895DF93CF93CDB7DEB7D7
:1031C00064970FB6F894DEBF0FBECDBF698B7A8BC4
:1031D0008B8B9C8B69897A898B899C890E94B3042B
:1031E000DC01CB019E012F5F3F4FB9014AE050E067
:1031F0000E948E23CE0101960E94C31780E690E0C4
:103200000E94C31769897A898B899C890E94B304BB
:10321000DC01CB01AA2797FDA095BA2FBC01CD01F7
:103220000E9455049B01AC0169897A898B899C892C
:103230000E94C101DC01CB01898B9A8BAB8BBC8BCB
:1032400069897A898B899C8920E030E04AE754E4D7
:103250000E941F02DC01CB01898B9A8BAB8BBC8B4C
:1032600069897A898B899C890E94B304DC01CB012E
:103270009E012F5F3F4FB9014AE050E00E948E232C
:10328000CE0101960E94C31764960FB6F894DEBF74
:103290000FBECDBFCF91DF910895DF93CF93CDB710
:1032A000DEB781E00E94CD0ECF91DF910895DF93CC
:1032B000CF93CDB7DEB76E970FB6F894DEBF0FBED3
:1032C000CDBF1C8E1B8E1A8E198ED4C0CE014D968A
:1032D0000E94E9078823D1F32D8D3E8D8B8D9C8D27
:1032E0008217930720F48D8D9E8D9C8F8B8F80E0AD
:1032F00090E0A0EAB1E48D8B9E8BAF8BB88F6D8987
:103300007E898F89988D2BEA3AEA4AEA5EE30E9429
:103310001F02DC01CB01898B9A8BAB8BBC8B69893B
:103320007A898B899C8920E030E040E85FE30E9445
:10333000250488231CF481E0888B91C069897A89EF
:103340008B899C8920E030E04FE753E40E94C5035D
:1033500018160CF07BC06D897E898F89988D20E0CE
:1033600030E04AE754E40E941903DC01CB018C876A
:103370009D87AE87BF876C857D858E859F8520E084
:1033800030E04AE753E40E941F02DC01CB0188874A
:103390009987AA87BB87688579858A859B8520E080
:1033A00030E040E85FE30E94250488232CF481E0AC
:1033B00090E09F838E833FC0688579858A859B8551
:1033C00020E03FEF4FE757E40E94C50318164CF585
:1033D0006C857D858E859F8520E030E040E251E45C
:1033E0000E941F02DC01CB01BC01CD010E944900FB
:1033F000DC01CB019F838E830FC089E190E09D8328
:103400008C838C819D810197F1F79D838C838E81C4
:103410009F8101979F838E838E819F81009769F79B
:1034200024C0688579858A859B850E944900DC01D6
:10343000CB019F838E838E819F819B838A838A8128
:103440009B810197F1F79B838A830FC069897A89F1
:103450008B899C890E944900DC01CB01888B88897B
:10346000898389818A95F1F78983898D9A8D01965F
:103470009A8F898F898D9A8D8A3F910508F426CF7E
:103480008B8D9C8D6E960FB6F894DEBF0FBECDBFB0
:10349000CF91DF910895DF93CF93CDB7DEB76E97CD
:1034A0000FB6F894DEBF0FBECDBF1C8E1B8E1A8EDA
:1034B000198ED4C0CE014D960E94E9078823D1F31E
:1034C0002D8D3E8D8B8D9C8D8217930720F48D8DD5
:1034D0009E8D9C8F8B8F80E090E0A0EAB1E48D8B75
:1034E0009E8BAF8BB88F6D897E898F89988D2BEAE3
:1034F0003AEA4AEA5EE30E941F02DC01CB01898BB3
:103500009A8BAB8BBC8B69897A898B899C8920E0EB
:1035100030E040E85FE30E94250488231CF481E04A
:10352000888B91C069897A898B899C8920E030E0F9
:103530004FE753E40E94C50318160CF07BC06D8959
:103540007E898F89988D20E030E04AE754E40E941C
:103550001903DC01CB018C879D87AE87BF876C8503
:103560007D858E859F8520E030E04AE753E40E9408
:103570001F02DC01CB0188879987AA87BB876885F2
:1035800079858A859B8520E030E040E85FE30E94F2
:10359000250488232CF481E090E09F838E833FC034
:1035A000688579858A859B8520E03FEF4FE757E462
:1035B0000E94C50318164CF56C857D858E859F8508
:1035C00020E030E040E251E40E941F02DC01CB0128
:1035D000BC01CD010E944900DC01CB019F838E8399
:1035E0000FC089E190E09D838C838C819D81019740
:1035F000F1F79D838C838E819F8101979F838E83BA
:103600008E819F81009769F724C0688579858A85B6
:103610009B850E944900DC01CB019F838E838E81B4
:103620009F819B838A838A819B810197F1F79B838A
:103630008A830FC069897A898B899C890E94490095
:10364000DC01CB01888B8889898389818A95F1F790
:103650008983898D9A8D01969A8F898F898D9A8D0C
:103660008A3F910508F426CF8B8D9C8D6E960FB600
:10367000F894DEBF0FBECDBFCF91DF910895DF93E9
:10368000CF93CDB7DEB728970FB6F894DEBF0FBE45
:10369000CDBF18861F821E821D8280E090E0A0E0D0
:1036A000B0E089839A83AB83BC8383E00E94750773
:1036B00082E690E00E94C3170E9457199E838D8373
:1036C0008D819E81CC01A0E0B0E0BC01CD010E94C3
:1036D0000705DC01CB01BC01CD0120E030E44CE961
:1036E00055E40E941F02DC01CB01BC01CD0120E0AA
:1036F00030EC4FE754E40E941903DC01CB018983CD
:103700009A83AB83BC8369817A818B819C8120E021
:1037100030E040E450E40E941F02DC01CB018983C9
:103720009A83AB83BC8369817A818B819C8120E001
:1037300030E040EF51E40E941903DC01CB01BC01F1
:10374000CD010E944900DC01CB0198878F8381E085
:1037500060E00E94EC178F81988523E0893E9207F4
:10376000E0F08F81988528EE33E0B9010E940E23A6
:10377000CB010E94471881E790E00E94C3178F8118
:10378000988528EE33E0B9010E940E230E94471865
:1037900083E790E00E94C31708C08F8198850E943C
:1037A000471888E790E00E94C31782E492E00E94E5
:1037B0008B0C809142028D3309F07ECF0E944D190F
:1037C00081E68093420228960FB6F894DEBF0FBEC2
:1037D000CDBFCF91DF910895DF93CF93CDB7DEB703
:1037E00028970FB6F894DEBF0FBECDBF18861F8294
:1037F0001E821D8280E090E0A0E0B0E089839A8381
:10380000AB83BC8383E00E9475078EE790E00E9443
:10381000C3170E944B1A9E838D838D819E81CC019C
:10382000A0E0B0E0BC01CD010E940705DC01CB01A6
:10383000BC01CD0120E030E44CE955E40E941F02B8
:10384000DC01CB01BC01CD0120E030EC4FE754E4BA
:103850000E941903DC01CB0189839A83AB83BC836B
:1038600069817A818B819C8120E030E040E450E4E2
:103870000E941F02DC01CB0189839A83AB83BC8346
:1038800069817A818B819C8120E030E040EF51E4B6
:103890000E941903DC01CB01BC01CD010E9449004B
:1038A000DC01CB0198878F8381E060E00E94EC17F8
:1038B0008F81988523E0893E9207E0F08F8198857B
:1038C00028EE33E0B9010E940E23CB010E94471875
:1038D00081E790E00E94C3178F81988528EE33E03E
:1038E000B9010E940E230E94471883E790E00E94CE
:1038F000C31708C08F8198850E94471888E790E019
:103900000E94C31782E492E00E948B0C80914202D5
:103910008D3309F07ECF0E944D1981E680934202DB
:1039200028960FB6F894DEBF0FBECDBFCF91DF91C2
:103930000895DF93CF93CDB7DEB768970FB6F894AD
:10394000DEBF0FBECDBF80E090E0A0E0B0E08D8B89
:103950009E8BAF8BB88F80E090E0A0E0B0E0898BC9
:103960009A8BAB8BBC8B80E090E4ACE1B6E48D87A6
:103970009E87AF87B88B80E090E5A3ECB7E489879A
:103980009A87AB87BC8718861F8280E090E0A0E012
:10399000B0E08B839C83AD83BE831A82198281E061
:1039A0000E9475078DE890E00E94C3170E944B1A91
:1039B000CC01A0E0B0E0BC01CD010E940705DC0114
:1039C000CB018B839C83AD83BE836B817C818D8196
:1039D0009E8120E030E048EC52E40E9425048823D8
:1039E0000CF074C081E090E09A838983A7E2B0E094
:1039F000E7E2F0E0808180648C93A7E2B0E0E7E248
:103A0000F0E0808180688C930E944B1ACC01A0E08A
:103A1000B0E0BC01CD010E940705DC01CB018B8326
:103A20009C83AD83BE836B817C818D819E812AE0E6
:103A300037ED43E250E40E941F02DC01CB01BC01E0
:103A4000CD0120E030EC4FE754E40E941903DC0183
:103A5000CB01898B9A8BAB8BBC8B6D857E858F85DB
:103A6000988929853A854B855C850E94F201DC01A5
:103A7000CB019C01AD0169857A858B859C850E946F
:103A80001903DC01CB019C01AD0169897A898B891D
:103A90009C890E941903DC01CB018D8B9E8BAF8B1F
:103AA000B88F6D897E898F89988D20E030E04AE754
:103AB00054E40E941F02DC01CB01BC01CD010E9435
:103AC0004900DC01CB0198878F8370C01A8219826C
:103AD0006B817C818D819E8120E030E445E354E45C
:103AE0000E94C503181684F46B817C818D819E81B0
:103AF00020E030E040E85FE30E94C101DC01CB013F
:103B00008B839C83AD83BE836B817C818D819E8101
:103B100020E030E040EA50E40E941F02DC01CB01CB
:103B2000BC01CD0120E030EC4FE754E40E941903C2
:103B3000DC01CB01898B9A8BAB8BBC8B6D857E8531
:103B40008F85988929853A854B855C850E94F2018D
:103B5000DC01CB019C01AD0169857A858B859C8553
:103B60000E941903DC01CB019C01AD0169897A89AE
:103B70008B899C890E941903DC01CB018D8B9E8B64
:103B8000AF8BB88F6D897E898F89988D20E030E06A
:103B90004AE754E40E941F02DC01CB01BC01CD01C5
:103BA0000E944900DC01CB0198878F8381E060E0AF
:103BB0000E94EC178F81988523E0893E9207E0F000
:103BC0008F81988528EE33E0B9010E940E23CB0146
:103BD0000E94471881E790E00E94C3178F81988563
:103BE00028EE33E0B9010E940E230E94471884EAB0
:103BF00090E00E94C31708C08F8198850E944718E3
:103C000084EB90E00E94C31782E492E00E948B0C48
:103C1000809142028D3309F0C9CE0E944D1981E690
:103C20008093420268960FB6F894DEBF0FBECDBFF8
:103C3000CF91DF910895DF93CF93CDB7DEB768972B
:103C40000FB6F894DEBF0FBECDBF80E090E0A0E0DD
:103C5000B0E08D8B9E8BAF8BB88F80E090E0A0E0C2
:103C6000B0E0898B9A8BAB8BBC8B80E090E4ACE1AD
:103C7000B6E48D879E87AF87B88B80E090E5A3EC94
:103C8000B7E489879A87AB87BC8718861F8280E054
:103C900090E0A0E0B0E08B839C83AD83BE831A826A
:103CA000198282E00E94750784EC90E00E94C3179D
:103CB0000E944B1ACC01A0E0B0E0BC01CD010E94F3
:103CC0000705DC01CB018B839C83AD83BE836B81B5
:103CD0007C818D819E8120E030E048EC52E40E949E
:103CE000250488230CF074C081E090E09A838983D6
:103CF000A7E2B0E0E7E2F0E0808180648C93A7E285
:103D0000B0E0E7E2F0E0808180688C930E944B1A7B
:103D1000CC01A0E0B0E0BC01CD010E940705DC01B0
:103D2000CB018B839C83AD83BE836B817C818D8132
:103D30009E812AE037ED43E250E40E941F02DC013D
:103D4000CB01BC01CD0120E030EC4FE754E40E94F0
:103D50001903DC01CB01898B9A8BAB8BBC8B6D85F6
:103D60007E858F85988929853A854B855C850E945B
:103D7000F201DC01CB019C01AD0169857A858B855F
:103D80009C850E941903DC01CB019C01AD0169896E
:103D90007A898B899C890E941903DC01CB018D8B68
:103DA0009E8BAF8BB88F6D897E898F89988D20E02F
:103DB00030E04AE754E40E941F02DC01CB01BC0161
:103DC000CD010E944900DC01CB0198878F8370C030
:103DD0001A8219826B817C818D819E8120E030E482
:103DE00045E354E40E94C503181684F46B817C817A
:103DF0008D819E8120E030E040E85FE30E94C101B8
:103E0000DC01CB018B839C83AD83BE836B817C8182
:103E10008D819E8120E030E040EA50E40E941F0244
:103E2000DC01CB01BC01CD0120E030EC4FE754E4D4
:103E30000E941903DC01CB01898B9A8BAB8BBC8B65
:103E40006D857E858F85988929853A854B855C852A
:103E50000E94F201DC01CB019C01AD0169857A85EC
:103E60008B859C850E941903DC01CB019C01AD016F
:103E700069897A898B899C890E941903DC01CB01AD
:103E80008D8B9E8BAF8BB88F6D897E898F89988D36
:103E900020E030E04AE754E40E941F02DC01CB013D
:103EA000BC01CD010E944900DC01CB0198878F83C2
:103EB00081E060E00E94EC178F81988523E0893EC5
:103EC0009207E0F08F81988528EE33E0B9010E94D7
:103ED0000E23CB010E94471881E790E00E94C31790
:103EE0008F81988528EE33E0B9010E940E230E944D
:103EF000471884EA90E00E94C31708C08F81988514
:103F00000E94471884EB90E00E94C31782E492E07D
:103F10000E948B0C809142028D3309F0C9CE0E9421
:103F20004D1981E68093420268960FB6F894DEBF81
:103F30000FBECDBFCF91DF910895DF93CF9300D017
:103F40000F92CDB7DEB789838981282F30E03B837C
:103F50002A838A819B8182309105D9F12A813B8114
:103F6000233031055CF48A819B81009791F02A818E
:103F70003B812130310509F44CC05BC08A819B81B3
:103F800083309105B1F12A813B812430310589F0DC
:103F900050C083E066E040E00E94500983E067E0A3
:103FA00040E00E94500980E066E040E00E94500935
:103FB0004FC083E066E041E00E94500983E067E083
:103FC00040E00E94500980E066E040E00E94500915
:103FD0003FC083E066E040E00E94500983E067E074
:103FE00041E00E94500980E066E040E00E945009F4
:103FF0002FC083E066E041E00E94500983E067E063
:1040000041E00E94500980E066E040E00E945009D3
:104010001FC083E066E040E00E94500983E067E053
:1040200040E00E94500980E066E041E00E945009B3
:104030000FC083E066E040E00E94500983E067E043
:1040400040E00E94500980E066E041E00E94500993
:104050008981882F90E0880F991F880F991FFC0194
:10406000E25DFD4F80819181A281B3818093430203
:1040700090934402A0934502B09346020F900F9094
:104080000F90CF91DF910895EF92FF920F931F93BE
:10409000DF93CF93CDB7DEB7E1970FB6F894DEBFCD
:1040A0000FBECDBF83E08FA783E066E041E00E94B2
:1040B000650883E067E041E00E94650880E066E013
:1040C00041E00E9465080E941B0E85E00E94750772
:1040D0008BED90E00E94C3178FA50E949D1FCE011B
:1040E000C0960E94E9078823D1F380E090E0A8EC15
:1040F000B2E48FA398A7A9A7BAA76FA178A589A5AD
:104100009AA520E030E04AE753E40E941F02DC0158
:10411000CB018BA39CA3ADA3BEA36BA17CA18DA15E
:104120009EA120E030E040E85FE30E942504882360
:104130002CF481E090E09AA389A33FC06BA17CA1FD
:104140008DA19EA120E03FEF4FE757E40E94C503F9
:1041500018164CF56FA178A589A59AA520E030E046
:1041600040E251E40E941F02DC01CB01BC01CD0101
:104170000E944900DC01CB019AA389A30FC089E109
:1041800090E098A38F8F8F8D98A10197F1F798A356
:104190008F8F89A19AA101979AA389A389A19AA136
:1041A000009769F714C06BA17CA18DA19EA10E940C
:1041B0004900DC01CB019AA389A389A19AA19E8F12
:1041C0008D8F8D8D9E8D0197F1F79E8F8D8F88A994
:1041D00099A98036910508F0EFC082E08FA78FA5DE
:1041E0000E949D1F80E090E0A8E4B2E4898F9A8F3E
:1041F000AB8FBC8F698D7A8D8B8D9C8D20E030E0EC
:104200004AE753E40E941F02DC01CB018D8B9E8B99
:10421000AF8BB88F6D897E898F89988D20E030E0D3
:1042200040E85FE30E94250488232CF481E090E0BD
:104230009C8B8B8B3FC06D897E898F89988D20E008
:104240003FEF4FE757E40E94C50318164CF5698D00
:104250007A8D8B8D9C8D20E030E040E251E40E940D
:104260001F02DC01CB01BC01CD010E944900DC0131
:10427000CB019C8B8B8B0FC089E190E09A8B898B53
:1042800089899A890197F1F79A8B898B8B899C8907
:1042900001979C8B8B8B8B899C89009769F714C045
:1042A0006D897E898F89988D0E944900DC01CB0140
:1042B0009C8B8B8B8B899C89988B8F878F8598891A
:1042C0000197F1F7988B8F87CE01C0960E94E9077E
:1042D0008823D1F380E090E0A8E4B2E48B879C8748
:1042E000AD87BE876B857C858D859E8520E030E01F
:1042F0004AE753E40E941F02DC01CB018F839887B9
:10430000A987BA876F81788589859A8520E030E012
:1043100040E85FE30E94250488232CF481E090E0CC
:104320009E838D833FC06F81788589859A8520E043
:104330003FEF4FE757E40E94C50318164CF56B8515
:104340007C858D859E8520E030E040E251E40E942E
:104350001F02DC01CB01BC01CD010E944900DC0140
:10436000CB019E838D830FC089E190E09C838B837A
:104370008B819C810197F1F79C838B838D819E813A
:1043800001979E838D838D819E81009769F714C06C
:104390006F81788589859A850E944900DC01CB016F
:1043A0009E838D838D819E819A83898389819A8161
:1043B0000197F1F79A83898381E06FE00E94EC17FF
:1043C0008FA5882F90E00E94471881E060E00E944E
:1043D000EC1788A999A97C0100E010E080914302C4
:1043E00090914402A0914502B09146029C01AD011A
:1043F000265B3E4F4F4F5F4FC801B7010E94EF222F
:104400007B018C0128A939A98FEF93E0821B930BC4
:104410009C0140E050E0C801B7010E943523DA0159
:10442000C9018BA79CA7ADA7BEA78BA59CA5ADA5D1
:10443000BEA5893E23E0920720E0A20720E0B20754
:1044400048F18BA59CA5ADA5BEA528EE33E040E0C4
:1044500050E0BC01CD010E943523DA01C9010E9460
:10446000471881E790E00E94C3178BA59CA5ADA5D6
:10447000BEA528EE33E040E050E0BC01CD010E9433
:104480003523DC01CB010E94471886EF90E00E94A3
:10449000C31714C08BA59CA5ADA5BEA528EE33E01F
:1044A00040E050E0BC01CD010E943523DC01CB018E
:1044B0000E94471886E091E00E94C31782E492E0D0
:1044C0000E948B0C809142028D3309F008CE0E942D
:1044D0004D1981E680934202E1960FB6F894DEBF53
:1044E0000FBECDBFCF91DF911F910F91FF90EF9045
:1044F0000895DF93CF9300D00F92CDB7DEB7AFE52D
:10450000B0E0EFE5F0E0808180688C930E941B0EA4
:1045100080914202813641F40E944D1980E060E0B2
:104520000E94EC171092420225E131E080E060E049
:10453000A9010E942E180E94A70B89838981282F28
:1045400030E03B832A838A819B818230910561F12F
:104550002A813B812330310554F48A819B81009765
:1045600089F02A813B8121303105A9F0D1CF8A81A0
:104570009B818330910509F12A813B8124303105EB
:1045800029F1C6CF0E944D1980E060E00E94EC172F
:104590000E94991CBDCF0E944D1980E060E00E94EE
:1045A000EC170E941B1EB4CF0E944D1980E060E002
:1045B0000E94EC170E94EC1BABCF0E944D1980E0CB
:1045C00060E00E94EC170E943F1BA2CF0E944D1991
:1045D00080E060E00E94EC170E94442099CF629F27
:1045E000D001739FF001829FE00DF11D649FE00DEB
:1045F000F11D929FF00D839FF00D749FF00D659F4C
:10460000F00D9927729FB00DE11DF91F639FB00D4A
:10461000E11DF91FBD01CF0111240895AA1BBB1B89
:1046200051E107C0AA1FBB1FA617B70710F0A61BB2
:10463000B70B881F991F5A95A9F780959095BC01D3
:10464000CD01089597FB092E07260AD077FD04D0E7
:10465000E5DF06D000201AF4709561957F4F08952C
:10466000F6F7909581959F4F0895A1E21A2EAA1B07
:10467000BB1BFD010DC0AA1FBB1FEE1FFF1FA21712
:10468000B307E407F50720F0A21BB30BE40BF50B0F
:10469000661F771F881F991F1A9469F76095709598
:1046A000809590959B01AC01BD01CF0108952F929B
:1046B0003F924F925F926F927F928F929F92AF92B2
:1046C000BF92CF92DF92EF92FF920F931F93CF93FF
:1046D000DF93CDB7DEB7CA1BDB0B0FB6F894DEBF96
:1046E0000FBECDBF09942A88398848885F846E84BC
:1046F0007D848C849B84AA84B984C884DF80EE8006
:10470000FD800C811B81AA81B981CE0FD11D0FB60E
:10471000F894DEBF0FBECDBFED010895FB019F01F0
:10472000E8944230C4F04532B4F44A3029F497FB9F
:104730001EF4909581959F4F642F77270E940E233A
:10474000805D8A330CF0895D8193CB010097A1F7DE
:1047500016F45DE251931082C9010C94AF23DC0181
:10476000FC01672F71917723E1F7329704C07C91A8
:104770006D9370836291AE17BF07C8F30895F894E4
:02478000FFCF69
:104782002E0041432043757272656E743A202020D8
:10479200002E0020416D7000206D416D7000444379
:1047A2002043757272656E743A20202000444320C3
:1047B200566F6C746167653A2020202020202020EB
:1047C20020202000205620202020202020202020D1
:1047D20020202000206D5620202020202020202074
:1047E20020202000414320566F6C746167653A2097
:1047F2002020202020202020202000526573697371
:1048020074616E6365206578703A20202020202034
:10481200202020202000206B6F686D202020202087
:10482200202020202000206F686D202020202020C2
:10483200202020200063686F6F7365206F7065729F
:104842006174696F6E00000000000000000000014A
:10485200020203030303040404040404040405051C
:1048620005050505050505050505050505050606F4
:1048720006060606060606060606060606060606D6
:1048820006060606060606060606060606060707C4
:1048920007070707070707070707070707070707A6
:1048A2000707070707070707070707070707070796
:1048B2000707070707070707070707070707070786
:1048C2000707070707070707070707070707080874
:1048D2000808080808080808080808080808080856
:1048E2000808080808080808080808080808080846
:1048F2000808080808080808080808080808080836
:104902000808080808080808080808080808080825
:104912000808080808080808080808080808080815
:104922000808080808080808080808080808080805
:1049320008080808080808080808080808080808F5
:104942000808080808080808080808080808640091
:104952000000E803000010270000A0860100808408
:024962001E0035
:00000001FF
